:020000040800F2
:1000000070050020010100084D110008451100088D
:1000100049110008210F0008FB1C00080000000027
:10002000000000000000000000000000191300089C
:10003000250F000800000000C11100080514000889
:100040001B0100081B0100081B0100081B01000820
:100050001B0100081B0100081B0100081B01000810
:100060001B0100081B0100081B0100081B01000800
:100070001B0100081B0100081B0100081B010008F0
:100080001B0100081B0100081B0100081B010008E0
:100090001B0100081B0100081B0100081B010008D0
:1000A0001B0100081B0100081B0100081B010008C0
:1000B0001B0100081B0100087D1500081B0100083A
:1000C0001B0100081B0100081B0100081B010008A0
:1000D0001B010008CD1A00081B0100081B010008C5
:1000E0001B0100081B0100081B010008DFF80CD0F1
:1000F00000F00AFD00480047D130000870050020DC
:100100000648804706480047FEE7FEE7FEE7FEE7B1
:10011000FEE7FEE7FEE7FEE7FEE7FEE7091400085C
:10012000ED000008F0B480EA0102D40F4200B2EB07
:10013000410F02D20246084611464A0042D0C30D82
:10014000DDB2C1F3C752AD1A202D35DAC1F3160165
:1001500041F4000204B15242C5F1200602FA06F150
:100160002A411044B3EBD05F23D0C4B1012DA0EBE2
:10017000C35009DCF0BC4FF0004202EAC352DBB2CC
:1001800000F5000000F0D9BB400000F1807000EBEA
:10019000C350A0F1807040EAD170490009E04908DD
:1001A00041EAC071A0EBC35000F50000400800EB2D
:1001B000C350F0BC00F0B8BB6142012202EB410128
:1001C000001BF6E7F0BC704781F00041AAE780F021
:1001D0000040A7E780EA010210B502F000434000AA
:1001E00022D04A001FD0010E01EB1261C0F356006D
:1001F000C2F3560240F4000042F40002A0FB0220C9
:1002000000047F39140400D0401C50EA124001D48D
:100210004000491EC2B20C0604EBD010401C40083E
:10022000802A02D003E0002010BD20F00100002948
:1002300000DA0020184310BD30B480EA010202F059
:10024000004530F0004221F0004013D090B1C30DC2
:10025000D40DC2F31601C0F31600E41A41F40001F4
:1002600040F400027D34914201D3641C00E0490057
:10027000002C02DA30BC002070474FF4000000234D
:10028000914201D3891A034340084FEA4101F7D153
:1002900051B1914202D14FF0004105E002D24FF03E
:1002A000010101E06FF0010103EBC450284430BCB0
:1002B00000F03ABB2DE9FE4F804681EA0300C00FF3
:1002C0000C46009021F0004123F00045B8EB0200FD
:1002D000A94105D24046214690461C460B4602469F
:1002E00023F00040104347D0270DC7F30A00C3F3A3
:1002F0000A510290401A019040286BDAC3F31300B0
:1003000040F4801B0098924620B10023D2EB030AF0
:1003100063EB0B0B01985946C0F14002504600F0C8
:1003200084FA06460D4650465946019A00F09CFA5A
:1003300010EB08006141002487EA115284EAE77358
:100340001A4340D0009A62B3019A012A4FEA075239
:1003500015DC001B61EB02014FF0004202EA07527C
:10036000CDE90042001C41F5801132462B4600F0D9
:1003700021FB03B0BDE8F08F40462146F9E7001BA2
:1003800061EB0201001C41F5801300185B4120184D
:10039000A2F5001747EB030140EAD570B6196D418D
:1003A00011E06D084FEA360645EAC0754FEA07527C
:1003B000001B61EB0201001C41F5801149084FEA66
:1003C00030000019514132462B4603B0BDE8F04FD2
:1003D00000F0E1BA0098012240000023D0EB0202B5
:1003E00063EBE073009821464FEAE074B8EB00003D
:1003F00061EB0401E9E783F000435BE781F0004132
:1004000058E72DE9FE4F81EA030404F0004421F08F
:10041000004100944FF0000B23F0004350EA010428
:100420005ED052EA03045BD0C3F30A54C1F30A5509
:100430002C44A4F2F3340194A0FB0254C1F3130141
:1004400041F48011C3F3130343F4801301FB02440E
:1004500000FB034E840A970A44EA815447EA835713
:10046000A4FB076802958D0A05FB07854FEA932CCC
:1004700004FB0C542705029D4FEA065847EA16373D
:10048000B5EB08056EEB070C870E920E47EA811755
:1004900042EA8312A7FB0201B6EB0B0164EB0004F6
:1004A0002B0D43EA0C335E1844EB1C50DA465146E0
:1004B000E7FB0201C5F313044FEA0B3343EA14537D
:1004C0004FEA0432019C43EA0603A4F10C040294AF
:1004D000009CCDE900B400F06DFA03B0BDE8F08FE8
:1004E00000200146F9E72DE9F04D81EA030404F00C
:1004F000004B21F0004514464FF0000A23F0004164
:1005000050EA050220D054EA01021DD0C5F30A5773
:100510000246C5F31303C1F31300C1F30A5640F4B6
:10052000801543F48013A7EB0608101BD64608F28B
:10053000FD3873EB050002D308F1010801E09218C1
:100540005B41B8F1000F03DA00200146BDE8F08DF1
:1005500000204FF48011064684460EE0171B73EB13
:10056000050705D3121B63EB050306434CEA010C98
:1005700049084FEA300092185B4150EA0107EDD17B
:1005800052EA030012D082EA040083EA050108431C
:1005900005D0101BAB4106D20122002306E0002249
:1005A0004FF0004302E06FF0010253101AEB060017
:1005B0004CEB085110EB0A0041EB0B01BDE8F04D8C
:1005C00000F0E9B9C10F80EAE0700844CA07962339
:1005D000002100F0B2B996230022114600F0ADB917
:1005E0000EB5C10F80EAE0700844CA07002140F24E
:1005F00033438DE80E000A460B4600F0DBF903B0EA
:1006000000BD0EB540F2334102910021CDE9001149
:100610000A460B4600F0CEF903B000BD20F00040C2
:10062000C10DC0F3160040F400007F2901DA00205C
:100630007047962903DCC1F19601C840704796398E
:100640008840704770B5C1F30A5201F0004500249C
:10065000C1F3130140F2FF3341F480119A4201DAF1
:10066000002070BD40F233439A42A2F2334203DCD1
:10067000524200F0E9F800E090402C43F1D04042B3
:1006800070BDC1F30A5210B5C1F3130140F2FF333C
:1006900041F480119A4201DA002010BD40F2334348
:1006A0009A42A2F2334203DC524200F0CDF810BD70
:1006B000904010BD00F0004230F000400AD0C10D63
:1006C00001F56071C0F3160042EA0151C20840070B
:1006D00011437047002001467047000030B5041EEA
:1006E00071F1000404DB4FF00044404264EB01016F
:1006F000141E73F1000405DB1C464FF00043524208
:1007000063EB04038B4208BF824230BD30B5041E48
:1007100071F1000404DB4FF00044404264EB01013E
:10072000141E73F1000405DB1C464FF000435242D7
:1007300063EB0403994208BF904230BD01F00043CF
:1007400030B421F0004150EA010206D00A0DA2F5B2
:100750006072C1F31301002A02DC30BC0020704734
:10076000440F44EAC104C100E01830BC00EBC250A1
:1007700000F0DAB8002801DBC0F10040002901DBFD
:10078000C1F1004181427047002801DBC0F1004007
:10079000002901DBC1F100418842704730B50B46AA
:1007A000014600202022012409E021FA02F59D42A1
:1007B00005D303FA02F5491B04FA02F52844151E75
:1007C000A2F10102F1DC30BD2DE9F05F0546002009
:1007D00092469B4688460646814640241BE02846B2
:1007E00041464746224600F02FF853465A46C01A63
:1007F000914110D311461846224600F016F82D1AE2
:1008000067EB01084F4622460120002100F00DF859
:1008100017EB00094E41201EA4F10104DFDC48461D
:1008200031462A464346BDE8F09F202A04DB203AA1
:1008300000FA02F1002070479140C2F1200320FA33
:1008400003F3194390407047202A04DB203A21FA31
:1008500002F00021704721FA02F3D040C2F12002D9
:100860009140084319467047202A06DBCB17203AEF
:1008700041FA02F043EAE07306E041FA02F3D040A5
:10088000C2F1200291400843194670470FB400237B
:1008900000B589B00CA900910B996FF00042CB60B4
:1008A0001E4B06931E4B07930423CDE901321D4ACC
:1008B000089202466B46002000F0BEF909B05DF8D0
:1008C00014FB70B586B006464FF0FF300091CDE9BD
:1008D0000101002015460C4604903246694604A8E2
:1008E000FFF7D4FF03460498211825B108B10A4642
:1008F00000E022462A6000280DD0002B02DD00987F
:10090000884208D0081B0094CDE9010432466946AC
:1009100004A8FFF7BBFF06B070BD0000710E000811
:100920008F0E00082D0B00080029A8BF7047401C3F
:10093000490008BF20F00100704710B4B0FA80FCF5
:1009400000FA0CF050EA010404BF10BC704749B132
:10095000CCF1200421FA04F411FA0CF118BF0121A2
:1009600021430843A3EB0C01CB1D4FEA00614FEA82
:10097000102042BF002010BC704700EBC350104451
:100980000029A4BF10BC7047401C490008BF20F0DC
:10099000010010BC704710B5141E73F1000408DA92
:1009A000401C41F1000192185B411A4301D120F033
:1009B000010010BD2DE9F04D92469B4611B1B1FAF0
:1009C00081F202E0B0FA80F220329046FFF72DFF6C
:1009D00004460F4640EA0A0041EA0B0153465A46D4
:1009E000084313D0114653EA010019D0C8F1400260
:1009F0005046FFF729FF05460E46504659464246E7
:100A0000FFF713FF084305D0012004E020463946D4
:100A1000BDE8F08D0020054346EAE0762C433743DD
:100A20000A986305E40AA0EB08000022FD0A44EAE4
:100A300047540A3002D500200146E9E701051019A4
:100A40006941DDE9084500196941BDE8F04DA2E7BB
:100A50002DE9FE4FC3F30A5701F000450024C1F30E
:100A60000A56C3F31303C1F3130143F4801312EBCB
:100A7000020AA64641F48011009543EB030CA7F14E
:100A8000010B16E0B0EB0A0061EB0C01071E71F1DF
:100A9000000707DA4FF00008D0EB080085F00045AA
:100AA00068EB0101171A73EB0107EBD3761E0018F0
:100AB00049415E45F6DA50EA010209D0CDE900E588
:100AC000002213460296FFF775FF03B0BDE8F08FD2
:100AD00020460099F9E7C1F30A52C1F3130140F22D
:100AE000FF3341F480119A4202DA00200146704738
:100AF00040F233439A42A2F2334202DC5242FFF701
:100B0000A3BEFFF792BE0000064C074D06E0E0686A
:100B100040F0010394E8070098471034AC42F6D344
:100B2000FFF7E8FA803B0008A03B0008C0B24FF492
:100B3000F05100F0D5B900002DE9FF4F087881B0E1
:100B40009946FF2805D0491C2D2804D000240023F5
:100B500008E000230BE00124F9E703EB830300EB3B
:100B60004303491C0878FF28F7D104B15B420020F9
:100B70000090147801462D2C01D02B2C04D1521C4E
:100B80002D2C12D00024009400251678FF2E0ED0B4
:100B90000A24A0FB04C801FB0481002700FB071105
:100BA000521C16EB0C006941EFE70124EBE7994476
:100BB00050EA01020ED00024AA4D2646DFF8A88292
:100BC00000F0A2F982468B46B9F1000009DAC9F1BA
:100BD00000071BE001980021C0E9001105B0BDE845
:100BE000F08F074612E0F80707D022462B46304622
:100BF0004146FFF706FC0646884622462B4610462D
:100C00001946FFF7FEFB04460D467F10002FEAD180
:100C1000B9F1000F324643465046594602DAFFF713
:100C200062FC01E0FFF7EDFB009A0AB181F00041A0
:100C3000019AC2E90001D1E72DE9FF4F1F468DB0AF
:100C4000D7E901464FF0FF382E2045464FF0000906
:100C50000B90B9696D1C0E988847396A824688479F
:100C60000028F6D1BAF1FF3F0AD024F4D064002E58
:100C700011DDBAF12B0F08D0BAF12D0F0BD102E024
:100C8000404611B0ABE744F48064B9696D1C0E981E
:100C900088478246761E6946600501D52D2000E012
:100CA0002B208DF8000001F1010B0DF1200809E067
:100CB000B9696D1C0E98884782460F9844F40074F9
:100CC000761E0560002E02DDBAF1300FF0D00B99D0
:100CD0008A453ED144F0800406E00F99681CA9F1D2
:100CE000010944F400740860B9696D1C761E0E9801
:100CF000884782463028F0D02BE00B998A4505D1F1
:100D0000200603D444F08004761E18E0504601F01B
:100D10005DF908B30DF11301761E44F400748B45A0
:100D200008D2AAF130000BF8010B200607D5A9F173
:100D3000010003E0200602D409F101008146A0056C
:100D400002D50F99681C0860B9696D1C0E98884718
:100D50008246002ED1DC53E0002E51DDBAF1650F42
:100D600002D0BAF1450F4BD1A00549D5B9696D1C28
:100D700024F44074761E0E9888478246002E0CDDBF
:100D80002B2804D0BAF12D0F07D144F48074B9692F
:100D90006D1C0E9888478246761EE00501D52D21F0
:100DA00000E02B2108F8011BCDF82C8021E00DF18B
:100DB0002901761E44F4007488450CD2AAF1300053
:100DC00010F0FF0088F8000002D10B99884509D97E
:100DD00008F1010806E0E00501D5244801E042F2EF
:100DE0000F708146B9696D1C0E98884782460F982E
:100DF0000560002E04DD504601F0E8F80028D6D149
:100E0000F9690E988847FF208BF8000088F80000E9
:100E10000020069007904B466A4608A906A8FFF7EF
:100E20008BFEA00502D46FF001002AE714F0240F16
:100E30000AD0E00714D1DDE906123868031D3B60D3
:100E40000068C0E900120BE0DDE90601FFF776FC5F
:100E50000146E00704D13868021D3A60006801606D
:100E600028460EE7000024400000F03FF1D8FFFFC5
:100E7000426842B1016811F8013B23B1521EC0E93A
:100E80000012184670470121C160881E70474268F1
:100E90005AB1C368016843B983688B4205D0491EC3
:100EA000521CC0E90012002070474FF0FF3070471D
:100EB00070B521F0004303430CD0C1F30A55002460
:100EC000D5EB040564EB0403D617AD1AB34102DB7E
:100ED0000020014670BD201841EB025170BD00009A
:100EE0007F2801D9002208E0064A02EB5002C00721
:100EF000127800D1120902F00F0201209040084040
:100F000070470000403B00080EB540F233420292A9
:100F10000022CDE900221346FFF74CFD03B000BDCF
:100F200000BFFEE77047000008B501211D2000F05A
:100F300069F90121144800F0B9F84FF40050ADF8F8
:100F4000000010208DF8030001208DF80200694692
:100F50000E4800F01FF84FF400510C4800F0EEF876
:100F60004FF40070ADF8000010208DF80300012050
:100F70008DF802006946064800F00CF84FF4007145
:100F8000034800F0DBF808BD00023000001001400B
:100F9000000C01402DE9F04102460025002600200A
:100FA00000230024002791F803C00CF00F0591F8EE
:100FB00003C00CF0100CBCF1000F03D091F802C07C
:100FC0004CEA050591F800C0BCF1000F31D014685F
:100FD00000202BE04FF0010C0CFA00F3B1F800C038
:100FE0000CEA03069E4220D183004FF00F0C0CFA4E
:100FF00003F7BC4305FA03FC4CEA040491F803C070
:10100000BCF1280F06D14FF0010C0CFA00FCC2F81D
:1010100014C00AE091F803C0BCF1480F05D14FF0AD
:10102000010C0CFA00FCC2F810C0401C0828D1D3F7
:101030001460B1F800C0BCF1FF0F34DD546800202B
:101040002EE000F1080C4FF0010808FA0CF3B1F89B
:1010500000C00CEA03069E4221D183004FF00F0C22
:101060000CFA03F7BC4305FA03FC4CEA040491F8BC
:1010700003C0BCF1280F05D100F1080C08FA0CF8E8
:10108000C2F8148091F803C0BCF1480F07D100F1F9
:10109000080C4FF0010808FA0CF8C2F81080401C48
:1010A0000828CED35460BDE8F0810000F0B50A46B0
:1010B000002300240021002500F00046B6F1004F77
:1010C00002D11D4EF16901E01B4E7168C0F303456A
:1010D00083B200F44016B6F5401F08D121F07061CC
:1010E000154E766826F07066134F7E6012E000F4AD
:1010F0008016B6F5801F06D1032606FA05F4A14333
:1011000041F0706106E0460D360103FA06F6B14380
:1011100041F0706122B1460D360103FA06F6314303
:1011200000F00046B6F1004F02D1034EF16101E03C
:10113000014E7160F0BD0000000001404161704748
:101140000161704700BFFEE700BFFEE77047000087
:1011500070B5002100230F22C47804B3154C246815
:1011600004F4E064C4F5E064210AC1F10403CA4058
:10117000447804FA03F184781440214309010E4CA9
:101180000678A155047804F01F050124AC400578C9
:101190006D11AD0005F1E025C5F8004109E00478C6
:1011A00004F01F050124AC40044D0678761145F883
:1011B000264070BD0CED00E000E400E080E100E0BE
:1011C0007047000029B1064AD2690243044BDA6134
:1011D00004E0034AD2698243014BDA6170470000A0
:1011E0000010024029B1064A12690243044B1A61F9
:1011F00004E0034A12698243014B1A617047000000
:101200000010024029B1064A92690243044B9A61D8
:1012100004E0034A92698243014B9A6170470000DF
:101220000010024029B1064AD2680243044BDA603A
:1012300004E0034AD2688243014BDA607047000041
:101240000010024030B500210022002400232D4D63
:101250006D6805F00C0121B1042905D0082923D1BE
:1012600005E0294D056022E0274D05601FE0254D72
:101270006D6805F47012234D6D6805F48034022505
:1012800005EB92421CB9214D554305600BE01D4D05
:101290006D6805F400351DB11C4D5543056002E035
:1012A000194D5543056002E0174D056000BF00BFB2
:1012B000144D6D6805F0F0010909154D6B5C05686A
:1012C000DD4045600F4D6D6805F4E061090A104D81
:1012D0006B5C4568DD4085600A4D6D6805F46051C2
:1012E000C90A0B4D6B5C4568DD40C560054D6D68F6
:1012F00005F44041890B074D6B5CC568B5FBF3F500
:10130000056130BD0010024000127A0000093D0066
:101310000000002010000020704710B500F002F817
:1013200010BD00000CB5002001900090334800680B
:1013300040F480303149086000BF3048006800F454
:10134000003000900198401C0190009818B9019855
:10135000B0F5A06FF1D12948006800F4003010B159
:101360000120009001E0002000900098012843D166
:101370002348006840F010002149086008460068D2
:1013800020F0030008600846006840F00200086092
:101390001A4840681949486008464068486008464D
:1013A000406840F4806048600846406820F47C1043
:1013B00048600846406840F4E81048600846006805
:1013C00040F08070086000BF0C48006800F00070BA
:1013D0000028F9D00948406820F003000749486018
:1013E0000846406840F00200486000BF034840687B
:1013F00000F00C000828F9D10CBD000000100240DC
:10140000002002407047000010B51348006840F00B
:1014100001001149086008464068104908400E491B
:101420004860084600680E4908400B4908600846B5
:10143000006820F4802008600846406820F4FE0020
:1014400048604FF41F008860FFF767FF4FF00060AF
:101450000449086010BD0000001002400000FFF8C1
:10146000FFFFF6FE08ED00E000B589B00121042081
:10147000FFF7C8FE01210846FFF7A4FE0720ADF8DC
:10148000200018208DF8230003208DF8220008A9E1
:101490002448FFF77FFD4FF0804000F0A1F80020C6
:1014A000ADF8140040F29F50ADF818002020ADF8C0
:1014B00016000020ADF81A0005A94FF0804000F09A
:1014C000B3FA6020ADF804000120ADF8060000205A
:1014D000ADF80A00ADF80C0001A94FF0804000F013
:1014E0008DF901A94FF0804000F0DEF901A94FF01D
:1014F000804000F039FA0821C80600F0CBF9082135
:10150000C80600F023FA0821C80600F07DFA012180
:10151000880700F049F80121880700F054F809B065
:1015200000BD0000000801401FB501210420FFF7A5
:1015300049FE1E208DF8000001208DF8030068464A
:10154000FFF706FE40F2E730ADF808004720ADF89F
:1015500004000020ADF80600ADF80A0001A9064815
:1015600000F062FA01221146034800F03EF9012121
:10157000014800F028F81FBD0008004010B5012107
:10158000074800F021F9012804D106480068401CF2
:10159000044908600121024800F012F810BD000063
:1015A000000800406800002021B1028842F080025B
:1015B000028004E002884FF67F731A400280704771
:1015C000CA430282704721B1028842F001020280C0
:1015D00004E002884FF6FE731A4002807047000054
:1015E00010B504466848844208D10121C014FFF7B1
:1015F00019FE0021E014FFF715FEC4E0B4F1804F9E
:1016000008D101210846FFF7EDFD00210120FFF779
:10161000E9FDB8E05D48844208D101210220FFF7CE
:10162000E1FD00210220FFF7DDFDACE058488442D7
:1016300008D101210420FFF7D5FD00210420FFF788
:10164000D1FDA0E05348844208D101210820FFF7D2
:10165000C9FD00210820FFF7C5FD94E04E488442F3
:1016600008D101211020FFF7BDFD00211020FFF758
:10167000B9FD88E04948844208D101212020FFF7C4
:10168000B1FD00212020FFF7ADFD7CE044488442FD
:1016900008D101214014FFF7C5FD00216014FFF7B8
:1016A000C1FD70E03F48844209D10121C804FFF721
:1016B000B9FD00214FF40020FFF7B4FD63E03A4884
:1016C000844209D101210805FFF7ACFD00214FF448
:1016D0008010FFF7A7FD56E03448844209D101216C
:1016E0004805FFF79FFD00214FF40010FFF79AFD1A
:1016F00049E02F48844208D101214020FFF772FDC4
:1017000000214020FFF76EFD3DE02A48844208D1C9
:1017100001218020FFF766FD00218020FFF762FD98
:1017200031E02548844208D101218015FFF75AFD98
:101730000021A015FFF756FD25E02048844209D17D
:1017400001210804FFF76EFD00214FF48030FFF700
:1017500069FD18E01A48844209D101214804FFF7C5
:1017600061FD00214FF40030FFF75CFD0BE01548F0
:10177000844208D101218804FFF754FD00214FF471
:101780008020FFF74FFD10BD002C014000040040F9
:1017900000080040000C0040001000400014004011
:1017A00000340140004C0140005001400054014011
:1017B00000180040001C0040002000400040014094
:1017C000004401400048014030B50246002000239B
:1017D0000024158A05EA0103958905EA010413B17D
:1017E0000CB1012000E0002030BD1AB183890B4309
:1017F000838102E083898B438381704770B5002425
:1018000000220023058C4FF6FE7635400584028CBD
:101810008388048B4FF68F752C40B51E2C400D88A5
:101820002C43751E2A400D892A434D882A43144DA6
:10183000A8420BD0134DA84208D0134DA84205D0A2
:10184000124DA84202D0124DA84213D14FF6F7759F
:101850002A404D892A434FF6FB752A408D882A433A
:101860004FF6FF652B404FF6FF552B408D892B43DC
:10187000CD892B4383800483CD888586028470BD07
:10188000002C014000340140004001400044014070
:10189000004801400A460021018B4FF6F7731940BA
:1018A000114301837047000070B50024002200231B
:1018B000058C4FF6EF7635400584028C8388048BC7
:1018C00048F6FF752C404FF6FF452C400D884FF62B
:1018D000FF7606EA05252C434FF6DF752A400D8971
:1018E00006EA05152A434D8806EA05152A43154DD3
:1018F000A84202D0144DA8421DD14FF67F752A4050
:101900004D894FF6FF7606EA05152A434FF6BF7557
:101910002A408D8806EA05152A434FF6FF352B40ED
:101920004FF2FF752B408D8906EA85052B43CD8943
:1019300006EA85052B4383800483CD8805870284CE
:1019400070BD0000002C0140003401400A46002117
:10195000018B4FF2FF7319404FF6FF7303EA022326
:10196000194301837047000070B500240022002352
:10197000058C4FF6FF6635400584028C8388848B86
:101980004FF68F752C404FF6FC752C400D882C437C
:101990004FF6FF552A400D894FF6FF7606EA0525DA
:1019A0002A434D8806EA05252A43154DA84202D050
:1019B000144DA8421DD14FF2FF752A404D894FF6B4
:1019C000FF7606EA05252A434FF6FF352A408D8823
:1019D00006EA05252A434EF6FF752B404DF6FF75A6
:1019E0002B408D8906EA05152B43CD8906EA05159E
:1019F0002B4383808483CD888587028470BD00005B
:101A0000002C0140003401400A460021818B4FF632
:101A1000F7731940114381837047818670470187AE
:101A20007047818770470000002202881D4B984252
:101A30000ED01D4B98420BD0B0F1804F08D01B4BFD
:101A4000984205D01A4B984202D01A4B984204D1C2
:101A50004FF68F731A404B881A43174B984207D0A2
:101A6000164B984204D04FF6FF431A40CB881A43D6
:101A700002808B8883850B8803850A4B98420BD0A4
:101A8000094B984208D00E4B984205D00D4B984216
:101A900002D00D4B984201D10B7A03860123838239
:101AA00070470000002C0140003401400004004059
:101AB00000080040000C00400010004000140040EE
:101AC00000400140004401400048014010B540F290
:101AD0002551204800F050F800283AD01D4800F069
:101AE00007F9C4B21C48008800F40040F8B91A484D
:101AF000008800F4804090B10A2C03D000201649E1
:101B0000088026E01448008840F40040124908800C
:101B100000200988C1F30D01104A505419E00D2C22
:101B200006D10D48008840F480400B49088010E041
:101B300009480088C0F30D0008490C540648008885
:101B4000401C0549088008460088FF2801DD002068
:101B5000088010BD003801401800002070000020EF
:101B600021B1828942F40052828104E082894DF6DB
:101B7000FF731A408281704770B50246002400232B
:101B80000025002040F66A16B14200D100BFC1F323
:101B9000421501F01F03012606FA03F3012D02D1BD
:101BA0009689334006E0022D02D1168A334001E0C7
:101BB000968A33400C12012606FA04F41688344043
:101BC00013B10CB1012000E0002070BDF0B5034658
:101BD000002400260025002040F66A17B94200D1F3
:101BE00000BF1846C1F3421401F01F06012707FA8F
:101BF00006F5012C01D10C3004E0022C01D110308B
:101C000000E014301AB107682F43076002E007684C
:101C1000AF430760F0BD00002DE9F04786B00546F0
:101C20000E460024A24600BFA1460027B08900B19D
:101C300000BF2F462C8A4CF6FF700440F088044306
:101C40002C82AC894EF6F3100440B08831890843E9
:101C5000718908430443AC81AC8A4FF6FF400440CD
:101C6000B0890443AC8201A8FFF7ECFA1F48874211
:101C700002D1DDF810A001E0DDF80CA0A88900F485
:101C8000004040B10AEBCA0000EB0A10316849007D
:101C9000B0FBF1F807E00AEBCA0000EB0A1031686C
:101CA0008900B0FBF1F86420B8FBF0F004012009D2
:101CB000642101FB1089A88900F4004040B1322062
:101CC00000EBC900B0FBF1F000F00700044308E0AE
:101CD000322000EB09106421B0FBF1F000F00F009E
:101CE00004432C8106B0BDE8F087000000380140B5
:101CF00001468888C0F30800704700BFFEE7000077
:101D00000FB4054B10B503A9044A029800F090F9EE
:101D100010BC5DF814FB0000B53000081400002072
:101D2000490050EAC12018BF04204A0D18BF40F0F6
:101D3000010040F2FF72B2EB515F08BF40F00200B9
:101D4000012808BF052070472DE9F0414F1E00EB28
:101D5000C7010446D1E9000115461E4637F00602C8
:101D60000DD02A463346FEF74CFB7F1E04EBC7031B
:101D7000D3E90023FEF79EFA37F00602F1D1022FD5
:101D800025D0042F13D0062F18BFBDE8F0812A46B6
:101D90003346FEF736FBD4E90A23FEF78BFA2A46D0
:101DA0003346FEF72EFBD4E90823FEF783FA2A46D2
:101DB0003346FEF726FBD4E90623FEF77BFA2A46D4
:101DC0003346FEF71EFBD4E90423FEF773FA2A46D6
:101DD0003346FEF716FBD4E90223FEF76BFA2A46D8
:101DE0003346FEF70EFBD4E90023BDE8F041FEF7D1
:101DF00061BA0122FFF75CB8FEF75CBA0022134615
:101E000010461146FEF76FBB024A00201107FFF78C
:101E10004FB8000001FDFFFF014800687047000057
:101E20006C00002002E008C8121F08C1002AFAD185
:101E300070477047002001E001C1121F002AFBD14A
:101E40007047000001490860704700006C000020E6
:101E500070B504460D462846FEF7B4FB06462146FB
:101E6000FEF7B8F970BD00002DE9FF5FDDE9022043
:101E7000010DDDF838B0024318D044F61050A1F23D
:101E8000FF3141430D140F98012820D0A5EB0B0022
:101E9000401C5FEA000A4FF00004474EDFF81C9137
:101EA000A046504616D5CAF1000728E00F98012435
:101EB00043A2012808D0002100980F9BC0E900210F
:101EC000C0E90243BDE8FF9F6FEA0B01F4E7CBF1E5
:101ED0000000DEE7074612E0F80707D02246334647
:101EE00040464946FEF78DFA8046894622463346EB
:101EF00010461946FEF785FA04460E467F10002F5D
:101F0000EAD1DDE90201BAF1000F42464B4602DA9E
:101F1000FEF777FA01E0FEF7E6FA04460E460022E5
:101F2000284BFEF7F3FB03D84FF0FF30014607E0E4
:101F30000022254B20463146FEF7BCF9FEF7CBFDCB
:101F4000102409E0002C0ADB0A220023FEF73CFCE7
:101F5000019B30321A55641E50EA0102F2D1641C12
:101F6000019AC4F1110314440F9A012A03D00122EB
:101F700008430DD10AE0084304D000204FF0110BB4
:101F80000F9080E7A3EB0B056D1E0DE05B4504DDB4
:101F90004FF0000205F1010504E003DA4FF0000202
:101FA000A5F10105002AECD000980F99C0E9023193
:101FB000C0E9004586E70000000024400000F03F33
:101FC000300000000000F0430000E03F30380A28F5
:101FD00001D2012070470020704700002DE9F04732
:101FE00006463046FEF766FB07460F4A0F4B01F0E8
:101FF00017F80446FEF7A2FB814600214846FEF78B
:10200000C3FB03D84846FEF755FB07E04846FEF7FA
:1020100051FB0746044A054BFEF74CF90446FEF710
:102020008DFBBDE8F0870000EA2E4454FB211940E7
:102030002DE9FF4F95B09B468946064600250FE2E5
:10204000252877D100242746F84A0121059400E08D
:10205000044316F8013F203B01FA03F01042F7D188
:1020600030782A2811D06FF02F033078A0F1300299
:10207000092A16D8059A44F0020402EB820203EB07
:1020800042021044761C0590EFE759F8042B0592A4
:10209000002A03DA504244F40054059044F002044C
:1020A000761C30782E2816D116F8010F44F004045F
:1020B0002A280DD06FF02F023078A0F13003092BC1
:1020C00009D807EB870302EB4303C718761CF3E735
:1020D00059F8047B761C30786C280FD006DC4C282D
:1020E00017D068280DD06A2814D104E0742810D0C5
:1020F0007A280FD10DE044F400140AE044F480146F
:1021000001E044F440147278824202D104F5801454
:10211000761C761C307866280BD013DC582877D0D4
:1021200009DC002875D04528F6D04628F4D0472889
:102130001AD19DE118E0632835D0642879D065284C
:1021400012D195E1702873D008DC6728F1D0692896
:102150006FD06E280DD06F2806D1B5E073282CD033
:10216000752875D0782874D05A46179990476D1CF9
:1021700075E1C4F30250022809D003280DD0D9F824
:10218000001004280DD00D6009F1040967E1D9F8A9
:102190000010EA17C1E90052F6E7D9F800100D80E7
:1021A000F2E70D70F0E719F8041B8DF8001000201D
:1021B0008DF80100EA46012003E059F804AB4FF026
:1021C000FF3061074FF0000102D40DE008F101017A
:1021D0008846B9420FDA8045F8DB1AF80810002962
:1021E000F4D108E008F1010188468142FADB1AF8CF
:1021F00008100029F6D105985B46A0EB0807214698
:102200003846179A00F094FA284400EB080507E0D6
:102210004DE029E10DE01AF8010B5A461799904755
:10222000B8F10108F7D25B4621463846179A13E108
:1022300042E00A220092C4F302524FF0000A022A3E
:1022400008D059F804CB032A4FEAEC710AD00DE00C
:1022500029E02AE009F1070121F00702F2E802C1B2
:10226000914609E00FFA8CFC4FEAEC71042A03D185
:102270004FFA8CFC4FEAEC71002907DA0A4600217C
:10228000DCF1000C61EB02012D2202E0220504D5F5
:102290002B228DF80420012203E0E20701D0202246
:1022A000F7E7904659E00A2102E010220DE01021E4
:1022B0004FF0000A00910BE010224FF0000A44F0AA
:1022C00004040827009203E008224FF0000A00925D
:1022D000C4F30252022A05D059F804CB0021032A84
:1022E00008D009E009F1070121F00702F2E802C174
:1022F000914605E01FFA8CFC042A01D10CF0FF0C7A
:102300004FF00008220728D5702806D0009B83F0E4
:10231000100353EA0A0305D00EE040228DF8042092
:10232000012208E05CEA010206D030228DF8042088
:102330008DF8050002229046009B83F0080353EAC3
:102340000A030AD15CEA010201D1620705D53022F5
:102350008DF804204FF001087F1E582804D034A0C7
:1023600003900EA802900DE036A0F9E753466046B0
:10237000009AFEF729FA84460398825C0298401E70
:10238000029002705CEA0100F0D1029806A9081AD6
:1023900000F1200A600702D524F4803400E0012710
:1023A000574502DDA7EB0A0000E0002000EB0A0120
:1023B000009005984144401A0590E00306D45B461E
:1023C0002146179A059800F0B3F90544002706E066
:1023D00001A85A46C05D179990476D1C7F1C474560
:1023E000F6DBE0030CD55B462146179A059800F012
:1023F0009FF9054404E030205A46179990476D1C18
:102400000099481E00900029F5DC08E00298029926
:102410005A460078491C0291179990476D1CBAF1F1
:102420000001AAF1010AF1DC65E1000009280100C0
:10243000303132333435363738396162636465663A
:1024400000000000303132333435363738394142FC
:10245000434445460000000000F058F90544761C4E
:10246000307800287FF4ECAD19B02846BDE8F08F35
:10247000620700D4062709F1070222F0070CFCE8E6
:102480000223E14603F000485FEA080C02D00FF295
:10249000702C0DE05FEA045C02D50FF2682C07E0B7
:1024A0005FEAC47C02D00FF2602C01E0AFF2700C46
:1024B0004FF0FF3823F00043CDF850C065280CD012
:1024C00006DC452809D046281DD047283DD13DE0EF
:1024D000662818D067287ED138E00021112F01DB53
:1024E000112000E0781CCDE9000106A90EA8FFF735
:1024F000BBFCDDE90F010E9A03910021009207F168
:10250000010A04914DE04FF000400097CDE9011021
:1025100006A90EA8FFF7A8FCDDE90F0203920E9BA7
:1025200011990022DDF80CA00093049211B9791CD6
:1025300000EB010AB7EB0A0004D4C0F1FF3007F149
:10254000010A0490AAEB0700019044E0012F00DA91
:1025500001270021112F01DD112000E03846CDE9CF
:10256000000106A90EA8FFF77FFCDDE90F010E9A16
:102570000391002104910092BA4621070CD40399DB
:10258000514500DA8A46BAF1010F05DD009AAAF139
:102590000101515C302908D0B84202DA10F1040F71
:1025A00006DA0121CDE9011015E0AAF10101E9E700
:1025B000002805DC049901440491AAEB000102E023
:1025C000411C514500DD8A460499401A401C019087
:1025D0004FF000400290200704D40198504501DBE1
:1025E000CDF8048000208DF84F0002980DF14F07C0
:1025F000B0F1004F25D02B200E9002984FF002082A
:1026000000280CDA404202902D200E9007E00A21AB
:102610000298FEF7C3F83031029007F8011DB8F1B7
:102620000001A8F10108F2DC02980028EFD1791E20
:102630000E980870307800F0200040F0450007F850
:10264000020D12A8C01B00F107081498007800B111
:10265000012000EB0A01019801EBE071059841446B
:10266000401A401E0590E00306D45B462146179AA7
:10267000059800F05DF805441498007818B15A46A2
:10268000179990476D1CE00324D55B462146179AA5
:10269000059800F04DF805441CE00498002807DB7D
:1026A000DDE90301884203DD0098405C179901E0F1
:1026B000179930205A469047049805F10105401CAF
:1026C00004900198401E019004D12E205A4617997B
:1026D00090476D1CBAF10001AAF1010ADDDC05E0AA
:1026E00017F8010B5A46179990476D1CB8F1000175
:1026F000A8F10108F4DC5B462146179A0598ABE681
:102700002D0000002B000000200000002DE9F0410A
:10271000044600251E461746880404D405E03946C1
:102720002020B0476D1C641EF9D52846BDE8F08115
:102730002DE9F041044600251E469046C80301D508
:10274000302700E02027880404D505E041463846BC
:10275000B0476D1C641EF9D52846BDE8F081000025
:102760002DE9FF5F83465846FDF7A4FF0446954ACE
:10277000954BFDF7B3FF44D25846FDF79BFF934AB4
:10278000934BCDE90201FDF73CFE80460022134643
:10279000FDF7BCFF12D85846FDF78CFF80468B4AE8
:1027A0008B4BFDF72EFE00228A4BCDE90001FDF791
:1027B00081FDCDE90201FDF745FF11E05846FDF727
:1027C00079FF824A824BCDE90001FDF71AFE002213
:1027D000804BCDE90201FDF70EFE8046FDF732FF8A
:1027E0007D4951F820A05046FDF7FAFE06467B4A87
:1027F0007B4BFDF706FE0446FDF7A0FF04B0BDE8E5
:10280000F09F5846FDF756FF0446764A764BFDF793
:1028100065FF44D25846FDF74DFF6C4A6C4BCDE93D
:102820000201FDF7EEFD804600221346FDF76EFF24
:1028300012D85846FDF73EFF644A654BCDE90001CA
:10284000FDF7DFFD0022634BCDE90201FDF732FD0C
:102850008046FDF7F7FE11E05846FDF72BFF5B4A77
:102860005B4BCDE90001FDF7CCFD0022594BCDE9D2
:102870000201FDF7C0FD8046FDF7E4FEC0F5C7701C
:10288000554951F820A05046FDF7AAFE0646534A86
:10289000534BFDF7B6FD0446FDF750FFAEE7584633
:1028A000FDF708FF0446514A514BFDF717FF44D28C
:1028B0005846FDF7FFFE454A454BCDE90201FDF7BD
:1028C000A0FD804600221346FDF720FF12D858468F
:1028D000FDF7F0FE3D4A3E4BCDE90001FDF791FDCD
:1028E000804600223B4BFDF7E5FCCDE90201FDF7F8
:1028F000A9FE11E05846FDF7DDFE344A344BCDE920
:102900000001FDF77EFD80460022324BFDF773FD8E
:10291000CDE90201FDF796FEA0F5C7702E4951F8EA
:1029200020A05046FDF75CFE06462C4A314BFDF7D1
:1029300068FD0446FDF702FF60E75846FDF7BAFE62
:102940008046224A224BFDF75CFD00221346CDE96A
:102950000201FDF7DBFE12D85846FDF7ABFE1B4A1D
:102960001B4BCDE90001FDF74CFD80460022194BC1
:10297000FDF7A0FCCDE90201FDF764FE11E0584629
:10298000FDF798FE8046114A114BFDF73AFD0022F3
:10299000104BCDE90001FDF72EFDCDE90201FDF759
:1029A00051FEC0F547700C4951F820A05046FDF784
:1029B00017FE0646094A0F4BFDF723FD0446FDF7B7
:1029C000BDFE1BE7F4D64354FB21F93F9CA223B97B
:1029D000FCAB5F400000E03F7C3700082D431CEB60
:1029E000E2361A3FEA2E4454FB210940320D337F70
:1029F0007CD91240E2361ABF70B5044625462E46F1
:102A00000448A0EB6606354629462046FDF7E2FB62
:102A100070BD0000865A375F2DE9FC5F06464FF017
:102A2000E020846950480068844215D24E49096804
:102A3000081BFDF7D0FD4D490090FDF7FDFB01900F
:102A4000FDF738FE82464A4A4A4BFDF7DAFC074654
:102A5000FDF774FE054617E06FF07F41091B424AFF
:102A600012688818FDF7B7FD40490090FDF7E4FBB8
:102A70000190FDF71FFE07463D4A3E4BFDF7C1FCA6
:102A80008246FDF75BFE0546374804600021284674
:102A9000FDF770FE08D02846FDF70CFE0746002221
:102AA000354BFDF733FE00D2344D294634480068DB
:102AB000FDF790FB0190FDF7FDFD07468846314884
:102AC00001683046FDF780FB0190FDF7F3FD21F032
:102AD000004182463A464346FDF718FE2FD2294868
:102AE00001683046FDF770FB00210190FDF742FEC2
:102AF00002D24FF0FF300CE0224801683046FDF76B
:102B000063FB00210190FDF73FFE01D2012000E0B0
:102B100000208346FDF756FD82461948016850465D
:102B2000FDF758FB80462946FDF754FB074615483C
:102B300001683846FDF7F6FA1249086001E01148CD
:102B400006601148D0F80090104801680D480068F0
:102B5000FFF77EF907463A460021484600F042FB5F
:102B60004846BDE8FC9F00005C00002000001041CA
:102B70008DEDB5A0F7C6B03E0000E03F6F12833A7E
:102B8000600000201C00002054000020580000209D
:102B90002DE9F84F04460D4621F00040009173499D
:102BA000814211DC7249884201DC06D12CB12046F9
:102BB0002946BDE8F84FFFF71CB96E48002DCCBF81
:102BC0006D496E49BDE8F88F6D49814211DD6D494F
:102BD0008142D8BF4FF0FF366DDD20462946FFF712
:102BE0009FF8042808BFFFF70FF920462946BDE8E3
:102BF000F88F6549654F25F00045814233DD644912
:102C0000814219DD002632464FF080432046294696
:102C1000FDF750FB80468A46012220462946FEF7F2
:102C200047F900223B46FDF7E6FB42465346FDF7D7
:102C30005AFC04460D463EE001260022BA463B46B9
:102C400020462946FDF736FB80460F4600225346B4
:102C500020462946FDF7CFFB42463B46FDF743FCA5
:102C600004460D4627E04B4981421BDDDFF828A1D1
:102C700002260022534620462946FDF7C2FB0022C9
:102C80003B46FDF717FB80460F4600225346204681
:102C90002946FDF7B0FB42463B46FDF724FC0446BF
:102CA0000D4608E0032622462B4600203B49FDF74F
:102CB0001AFC04460D4622462B4610461946FDF7DF
:102CC000A0FB8B46824602460B46FDF79AFB074661
:102CD0000246334888460B4606217844FFF734F80D
:102CE00052465B46FDF78DFB82462E488B463A46A0
:102CF000434605217844FFF727F83A464346FDF757
:102D000080FB02460B46002E504659460CDAFDF772
:102D1000D1FA22462B46FDF774FB01B022462B4622
:102D2000BDE8F04FFDF76ABBFDF7C4FA22462B461B
:102D3000FDF767FB1C4A7A4402EBC603D3E9002384
:102D4000FDF759FB22462B46FDF755FB174A7A44FF
:102D500002EBC603D3E90023FDF750FB009A002ADB
:102D6000B8BF81F00041BDE8F88F000000001044BA
:102D70000000F07F182D4454FB21F93FFB21F9BFDF
:102D80000000DC3F0000203E0000F33F0000F03F69
:102D90000000E63F008003400000F83F0000F0BF65
:102DA0002A0E0000E80D0000860D00004E0D000008
:102DB0002DE9F04D9446CCF1000423F000464CEA96
:102DC0000404524F46EAD4749A46884621F00042E1
:102DD000BC4206D8454240EA050442EAD474BC42EB
:102DE00004D9BDE8F04D6246FFF706B8AAF1405598
:102DF000A5F17F6555EA0C040BD0022404EAAA74FD
:102E0000434DDFF810E144EAD87452EA000B04D0D5
:102E10000CE0BDE8F04DFFF7BBBE002C14BF012C49
:102E2000BDE8F08D022C30D0032C32D056EA0C0BCA
:102E30000AD0BE4220D1BA4209D126F0804622F003
:102E400080423346114617E000291ADB25E0DFF8FF
:102E5000C8B0FB44002C04BFDBE90001BDE8F08DE5
:102E6000012C02BFDBE9000181F00041BDE8F08DDB
:102E7000022C0AD0032C0CD0BA4212D1B8F1000FA8
:102E80000BDA23482549BDE8F08D28462449BDE8E2
:102E9000F08D28467146BDE8F08D1D482149BDE8FA
:102EA000F08D921B12153C2AC4BF19481D490EDC37
:102EB000BAF1000FBEBF12F13C0F0020014606DB45
:102EC0006246FDF710FB21F00041FFF761FE002C88
:102ED00008BFBDE8F08D012C04BF81F00041BDE8C2
:102EE000F08D114A114B022C07D0FDF784FA2A46C7
:102EF000BDE8F04D0A4BFDF77EBAFDF77CFA2A4695
:102F0000BDE8F04D064BFDF779BA00000000F07FF8
:102F1000182D4454FB2109C0E20C0000FB21F9BF2D
:102F2000FB210940FB21F93F075C143326A6A13C95
:102F300030B583B00446FEF76FFF05460020CDE9AB
:102F40000000024621466846FDF7BBFC2846FEF716
:102F500079FFDDE9000103B030BD000070B5144811
:102F6000008800F4004010B312480078482802D0CE
:102F7000542818D103E010A0FEF7C2FE13E00D485C
:102F8000401CFFF7D5FF0446FDF7D8FB0E4908604B
:102F900008460068FDF78EFB044622460B460BA050
:102FA000FEF7AEFE00BF00BF00200149088070BDE3
:102FB000180000207000002048656C6C6F20576F6F
:102FC000726C64210D0A00006400002052583D25F7
:102FD0002E34660D0A000000014642F228324A43B0
:102FE0004FF0E0235A6100229A611A46126942F0BA
:102FF00001021A6100BF4FF0E022106900F00102E7
:103000001AB100F48032002AF5D04FF0E0221269A4
:1030100022F001024FF0E0231A6100229A6170470A
:1030200070B514461D460E46002814BF012100212C
:10303000314321F00041C1F17F6101F1E041C90F4D
:1030400016D1002C14BF01210021294321F0004199
:10305000C1F17F6101F1E041C90F09D11449B1EB20
:10306000460F08BF00281CD0690008BF002C18D0EC
:103070003146FDF7EDFC024640F2FF7030EA115098
:103080000DD0F017B0EBE17F09D0084665F31E00C4
:1030900084460B4620466146FDF7B0F902461046CD
:1030A00070BD0120FEF7CEFEBDE87040FEF7A6BE63
:1030B0000000E0FF00BF054A128802F04002002A2B
:1030C000F9D0C2B2014B1B1D1A8070470038014075
:1030D000FDF72AFF4FF4E13000F084FAFEF7C4F95F
:1030E000FEF722FA4FF47A70FFF776FF1848194975
:1030F000086019481949086019481A4908600320EE
:10310000194908700720194908604FF400711848E0
:10311000FEF716F817A0FEF7F3FD00F057FA19486E
:103120001949086012E019480068C82808D300202F
:10313000164908601648C06880F400501449C860F9
:103140001148006800F026F8FFF708FFEBE70000E1
:1031500000004041500000200000204054000020AA
:103160000000A04160000020450000205800002021
:10317000000C01404D6F746F722072656164792E8E
:103180000D0A0000C3F5C84064000020680000205C
:103190000010014010B504460E480078032802D004
:1031A000042814D109E00C480460006800F06AFAB1
:1031B0000A4948600020086009E009480460006886
:1031C000FFF72AFC054948600020086000BF00BFE7
:1031D00010BD0000450000202C000020340000201D
:1031E000300000202DE9F74F96B082468B46002133
:1031F0005846FDF7BFFA38D051465046FCF7EAFF73
:10320000594611905846FCF7E5FF10901199FCF7CC
:1032100089FF1290FFF7F0FB1390E34801681398C1
:10322000FDF70AF880465846FDF744FACDE90A0151
:103230005046FDF73FFACDE90801DDE90A23FFF723
:10324000B7FDCDE90E011898FDF734FACDE90C0170
:10325000DDE90E23FDF72EF8CDE91001FDF76EFA3A
:103260001390FEF7BBFE189016E0CF480168504659
:10327000FCF7E2FF80461898FDF71CFACB4ACC4BCE
:10328000CDE90E01FDF716F8CDE91001FDF756FA6C
:103290001390FEF7A3FE18901898FDF70BFAC54A95
:1032A000C54BCDE90E01FDF71EF90022C34BCDE958
:1032B0001001FCF7FFFFCDE91201FDF7E2F9074627
:1032C0004046FDF7F7F9CDE910011898FDF7F2F93E
:1032D000CDE906013846FDF794F9B64AB64BCDE97B
:1032E0000201FDF78EF8CDE90401DDE90623FDF7C3
:1032F00082F8CDE90801FDF721FA0A90FFF730FACC
:103300000B90FDF7D7F9AE4AAE4BCDE90C01FDF7B6
:1033100078F8CDE90E01DDE91023FDF772F8CDE96B
:103320001201FDF70BFA81464046FDF7C3F9CDE9DE
:1033300010013846FDF765F90022A04BCDE90001E8
:10334000FDF759F89B4A9C4BCDE90201FDF759F86E
:10335000CDE906011898FDF7ADF9CDE90401DDE9E5
:103360000623FDF748F8CDE90801FDF7E7F90A90D3
:10337000FFF7F6F90B90FDF79DF9914A914BCDE9D6
:103380000C01FDF73EF8CDE90E01DDE91023FDF754
:1033900038F8CDE91201FDF7D1F9149049464FF004
:1033A0007E50FCF711FF13901499FCF70DFF159058
:1033B000072F7DD2DFE807F0C60424446486A60008
:1033C0004FF080411598FCF737FF13904846149949
:1033D000FCF7A8FE12901399FCF7A4FE04464FF0E8
:1033E00080411598FCF728FF13901499FCF79AFE7A
:1033F00005464FF080411598FCF71EFF0646A5E0F4
:103400004FF080411598FCF717FF49461390FCF7E1
:1034100089FE04464FF080411598FCF70DFF13908C
:1034200048461499FCF77EFE12901399FCF77AFE39
:1034300005464FF080411598FCF7FEFE064685E0F4
:103440004FF080411598FCF7F7FE04464FF080419D
:103450001598FCF7F1FE139048461499FCF762FEAC
:1034600012901399FCF75EFE05464FF080411598C7
:10347000FCF7E2FE13901499FCF754FE064665E053
:103480004FF080411598FCF7D7FE04464FF080417D
:103490001598FCF7D1FE49461390FCF743FE05460C
:1034A0004FF080411598FCF7C7FE1390484600E0A6
:1034B00048E01499FCF736FE12901399FCF732FE9F
:1034C000064643E04FF080411598FCF7B5FE139097
:1034D0001499FCF727FE04464FF080411598FCF73D
:1034E000ABFE05464FF080411598FCF7A5FE139002
:1034F00048461499FCF716FE12901399FCF712FE39
:10350000064623E04FF080411598FCF795FE139096
:1035100048461499FCF706FE12901399FCF702FE38
:1035200004464FF080411598FCF786FE05464FF0A3
:1035300080411598FCF780FE49461390FCF7F2FD98
:10354000064603E000240025002600BF00BF1E49F8
:103550002046FCF73FFE1290FDF760F880B201466E
:1035600013904FF08040FEF758FA17492846FCF7B1
:1035700031FE1290FDF752F880B2014613904FF0E1
:103580008040FEF74CFA10493046FCF723FE1290BB
:10359000FDF744F880B2014613904FF08040FEF7EB
:1035A00040FA19B0BDE8F08F50000020F4D6435423
:1035B000FB21F93F40AF2D3852C1F03F0000F03FF2
:1035C0006B6058E87AB6FB3F0000B44404484FF003
:1035D000E0214861002088610120086170470000F7
:1035E000FEFFFF0010B586B00446012144F204003E
:1035F000FDF708FE4FF40070ADF8140003208DF8BD
:10360000160018208DF8170005A91C48FDF7C2FC0C
:103610004FF48060ADF8140004208DF8170005A960
:103620001648FDF7B7FC25208DF8000003208DF823
:1036300001008DF8020001208DF803006846FDF7B7
:1036400087FD01940020ADF80800ADF80A00ADF840
:103650000C00ADF810000C20ADF80E0001A90848D0
:10366000FEF7DAFA012240F225510548FEF7AEFADC
:1036700001210348FEF774FA06B010BD00080140AE
:10368000003801402DE9F14F82B04FF0E02084690D
:1036900031480068844215D22F490968081BFCF79D
:1036A0009AFF2E490190FCF7C7FD8346FDF702F80B
:1036B00081462B4A2B4BFCF7A4FE0646FDF73EF84D
:1036C000054617E06FF07F41091B234A12688818EE
:1036D000FCF781FF21490190FCF7AEFD8346FCF722
:1036E000E9FF06461E4A1F4BFCF78BFE8146FDF79D
:1036F00025F805461848046000212846FDF73AF8E9
:1037000008D02846FCF7D6FF06460022164BFCF7E9
:10371000FDFF00D2154D29460298FCF75BFD0746D8
:10372000134801683846FCF7FDFC0646FEF756FCD8
:103730000F4908600F48D0F800800F4801680C4816
:103740000068FEF785FB0646324600214046FFF73B
:1037500049FD4046BDE8FE8F5C000020000010419E
:103760008DEDB5A0F7C6B03E0000E03F6F12833A82
:103770001C00002054000020580000200000000021
:103780004F0000009E000000ED0000003C01000022
:103790008B010000D9010000280200007702000020
:1037A000C60200001503000063030000B20300001E
:1037B000000400004F0400009D040000EC04000021
:1037C0003A05000088050000D60500002406000028
:1037D00072060000C00600000E0700005B07000034
:1037E000A9070000F6070000430800009008000049
:1037F000DD0800002A09000077090000C309000065
:103800000F0A00005C0A0000A80A0000F40A000089
:103810003F0B00008B0B0000D60B0000210C0000BA
:103820006C0C0000B70C0000010D00004C0D0000F6
:10383000960D0000E00D0000290E0000730E000040
:10384000BC0E0000050F00004E0F0000960F000098
:10385000DF0F0000271000006E100000B6100000FF
:10386000FD100000441100008B110000D111000078
:10387000171200005D120000A2120000E812000002
:103880002D13000071130000B6130000F91300009F
:103890003D14000081140000C4140000061500004F
:1038A000491500008B150000CC1500000E16000015
:1038B0004F1600008F160000CF1600000F170000F3
:1038C0004F1700008E170000CD1700000B180000E6
:1038D0004918000087180000C418000001190000F2
:1038E0003D19000079190000B5190000F019000019
:1038F0002B1A0000661A00009F1A0000D91A000057
:10390000121B00004B1B0000831B0000BB1B0000B0
:10391000F21B0000291C0000601C0000961C000027
:10392000CB1C0000001D0000351D0000691D0000BB
:103930009D1D0000D01D0000031E0000351E00006C
:10394000671E0000981E0000C91E0000FA1E00003D
:10395000291F0000591F0000881F0000B61F00002B
:10396000E41F0000112000003E2000006A2000003B
:1039700096200000C1200000EC200000162100006D
:10398000402100006921000092210000BA210000BE
:10399000E1210000082200002F2200005522000033
:1039A0007A2200009F220000C3220000E7220000CC
:1039B0000A2300002D2300004F2300007023000085
:1039C00091230000B2230000D1230000F123000066
:1039D0000F2400002D2400004B2400006824000068
:1039E00084240000A0240000BB240000D524000093
:1039F000EF24000009250000222500003A250000E0
:103A000052250000692500007F2500009525000053
:103A1000AA250000BF250000D3250000E6250000F0
:103A2000F92500000B2600001D2600002E260000B0
:103A30003E2600004E2600005D2600006C26000099
:103A40007A2600008726000094260000A0260000A9
:103A5000AB260000B6260000C0260000CA260000E3
:103A6000D3260000DB260000E3260000EA26000043
:103A7000F1260000F7260000FC26000001270000C8
:103A800005270000082700000B2700000D27000075
:103A90000F27000010270000102700000000000082
:103AA0004FBB610567ACDD3F182D4454FB21E93F56
:103AB0009BF681D20B73EF3F182D4454FB21F93F45
:103AC000E2652F227F2B7A3C075C143326A6813CCB
:103AD000BDCBF07A8807703C075C143326A6913C76
:103AE000C4EB98999999C9BF711623FEC671BCBFE2
:103AF0006D9A74AFF2B0B3BF9AFDDE522DDEADBF4A
:103B00002F6C6A2C44B4A2BF0D5555555555D53F61
:103B1000FF8300922449C23F6E204CC5CD45B73F7C
:103B2000513DD0A0660DB13FEB0D76244B7BA93FF4
:103B300011DA22E33AAD903F0000000000000000DF
:103B4000DDDDDDDDDCBBBBDDDDDDDDDDDDDDDDDDEA
:103B5000988888888888888877777777778888882A
:103B600085555556666666666666666666688888C2
:103B70008333333222222222222222222228888DBB
:103B8000A03B00080000002070000000241E000878
:103B9000103C00087000002000050000341E0008E2
:103BA00000000000010203040102030406070809E3
:103BB00002040608000000000000000000000000F1
:103BC00000000000000000000000000000000000F5
:103BD00000000000000000000000000000000000E5
:103BE00000000000000000000000000000000000D5
:103BF00000000000000000000000000000000000C5
:103C000000000000000000000000000000000000B4
:04000005080000ED02
:00000001FF
